:020000040800F2
:100000003807002039040008DB090008DD09000872
:10001000E1090008E5090008E909000800000000FE
:10002000000000000000000000000000ED090008D2
:10003000EF09000800000000F1090008F3090008BA
:100040005304000853040008530400085304000834
:100050005304000853040008530400085304000824
:100060005304000853040008530400085304000814
:100070005304000853040008530400085304000804
:1000800053040008530400085304000853040008F4
:1000900053040008530400085304000853040008E4
:1000A00053040008530400085304000853040008D4
:1000B000530400081D0500085304000853040008F9
:1000C00053040008530400085304000853040008B4
:1000D00053040008BB090008530400085304000837
:1000E0005304000853040008530400085304000894
:1000F0005304000853040008530400085304000884
:100100005304000853040008530400085304000873
:100110005304000853040008530400085304000863
:100120005304000853040008530400085304000853
:100130005304000853040008530400085304000843
:100140005304000853040008530400085304000833
:100150005304000853040008530400085304000823
:100160005304000853040008530400085304000813
:100170005304000853040008530400085304000803
:10018000530400085304000800F002F800F03CF8A3
:100190000AA090E8000C82448344AAF10107DA45E2
:1001A00001D100F031F8AFF2090EBAE80F0013F0F8
:1001B000010F18BFFB1A43F001031847F02300009A
:1001C00010240000103A24BF78C878C1FAD852072A
:1001D00024BF30C830C144BF04680C6070470000C1
:1001E0000023002400250026103A28BF78C1FBD840
:1001F000520728BF30C148BF0B6070471FB502F0DF
:10020000CFF91FBD10B510BD02F09BF91146FFF7E5
:10021000F5FF00F05DF902F0B9F903B4FFF7F2FF62
:1002200003BC02F003F900000CB50020019000901F
:100230007648006840F480307449086000BF734815
:10024000006800F4003000900198401C0190009874
:1002500018B90198B0F5A06FF1D16C48006800F4AE
:10026000003010B10120009001E0002000900098C3
:10027000012846D165484030006840F0805063490D
:10028000403108606248006840F48040604908607E
:100290005E48083000685D4908310860084600681B
:1002A00040F4004008600846006840F4A050086030
:1002B0005848091F0860081F006840F08070091F37
:1002C000086000BF5148006800F000700028F9D0B5
:1002D00040F20560504908604C480830006820F042
:1002E00003004A49083108600846006840F00200EF
:1002F000086000BF45480830006800F00C0008287E
:10030000F8D10CBD10B54548006840F47000434971
:1003100008603E48006840F001003C490860002049
:100320003A4908310860394800683D490840374972
:1003300008603C48091D0860081F006820F4802000
:10034000091F0860002031490C310860FFF76CFF7D
:100350004FF0006031498039086010BD70B5002051
:100360000022022300240221284D08352D6805F0C3
:100370000C0020B1042806D0082834D107E02A4D0B
:100380002A4E356033E02A4D284E35602FE01F4D50
:100390002D1D2D68C5F380541C4D2D1D2D6805F0B5
:1003A0003F0154B1224DB5FBF1F5184E361D3668AC
:1003B000C6F3881605FB06F209E01B4DB5FBF1F507
:1003C000124E361D3668C6F3881605FB06F20F4D31
:1003D0002D1D2D68C5F301456D1C6B00B2FBF3F5B7
:1003E000124E356003E0104D104E356000BF00BF67
:1003F000064D08352D68C5F303150E4E705D0B4D87
:100400002D68C540094E356070BD000000380240BF
:100410000070004008544007003C024088ED00E0B6
:10042000FFFFF6FE103000240024F400000000203E
:1004300040787D01040000200948804709480047B2
:10044000FEE7FEE7FEE7FEE7FEE7FEE7FEE7FEE784
:10045000FEE7FEE704480549054A064B70470000E1
:100460000503000889010008380100203807002032
:1004700038030020380300207FB505460C460121D3
:10048000022000F026FE0295ADF804400020ADF8F1
:100490000600ADF80C0001A9174800F0D2FF0122B8
:1004A0001146154801F06EFC0121134801F052F885
:1004B0001D208DF8000001208DF8010003208DF82B
:1004C000020001208DF80300684600F0B0FA7FBDFD
:1004D0004FF4A06000F0A6FA01F066FF532104205B
:1004E000FFF7CAFF0020054908604FF4165001F0DD
:1004F000ABFF00BFFEE7000000040040B0824142B5
:100500001CB591FBF2F3009391FBF2F302FB131382
:100510000193DDE90034C0E900341CBD1CB50121A4
:10052000F74801F046FC01287DD1F6480068F649FD
:100530000968B0FBF1F201FB120048BBF348006808
:10054000801EF3490968884204D1EF480068401CC6
:10055000ED490860EF480068ED490968884208DD08
:10056000ED48006808B9012000E00020EA49086071
:1005700009E0E948001F006808B9012000E00020F8
:10058000E549091F0860E2480068401CE04908602E
:10059000DC480068E1490968B0FBF1F201FB120098
:1005A00000BBDF480068801EDE490968884204D12C
:1005B000DA480068401CD9490860DB480068D9491E
:1005C0000968884209DDD448001D006808B9012087
:1005D00000E00020D049091D0860D2480068401C96
:1005E000D0490860C7480068D0490968B0FBF1F2FB
:1005F00001FB120008BBCE480068801ECD49096887
:10060000884204D1C9480068401CC8490860CA48EB
:100610000068C849096888420ADDBF480830006898
:1006200010B9012001E00DE10020BB49083108604C
:10063000C0480068401CBF490860B2480068BF4914
:100640000968B0FBF1F201FB120000BBBC48006876
:10065000801EBC490968884204D1B8480068401C23
:10066000B6490860B8480068B6490968884209DD9B
:10067000A9480C30006808B9012000E00020A64914
:100680000C310860AF480068401CAE4908609D48C6
:100690000068AE490968B0FBF1F201FB120000BB33
:1006A000AB480068801EAB490968884204D1A7485E
:1006B0000068401CA5490860A7480068A54909686A
:1006C000884209DD94481030006808B9012000E034
:1006D00000209149103108609E480068401C9D49E7
:1006E0000860884800689D490968B0FBF1F201FB89
:1006F000120000BB9A480068801E9A490968884227
:1007000004D196480068401C9449086096480068E7
:1007100094490968884209DD7F481430006808B9A7
:10072000012000E000207C49143108608D480068F9
:10073000401C8C49086073480068401C714908607F
:100740000846006841F63F7188427BD170480068D6
:100750008649086000206B4908605A206D4908608E
:100760007149086074490860774908607A490860EF
:100770007D49086067484FF4FA510268684601F005
:10078000D2FE7B48DDE9001206C067484FF4FA51FB
:100790000268684601F0C7FE7648DDE9001206C02F
:1007A00065484FF4FA510268684601F0BCFE724891
:1007B000DDE9001206C064484FF4FA510268684649
:1007C00001F0B1FE6D48DDE9001206C062484FF449
:1007D000FA510268684601F0A6FE6948DDE9001298
:1007E00006C061484FF4FA510268684601F09BFE6A
:1007F0006448DDE9001206C05D48406858B15C48B5
:100800000068414908604348006859494968401AEE
:100810003E49086006E0564800683B4908600020F1
:100820003A4908605348406868B152480068401C23
:100830003A4908603C4800684E494968401A3849BE
:10084000086007E0B4E04B480068344908600020C5
:10085000334908604848406860B147480068401C18
:10086000324908603448006843494968401A3049B1
:10087000086006E0404800682C49086000202C49C8
:1008800008603E48406860B13C480068401C2B4905
:1008900008602D48006839494968401A28490860AD
:1008A00006E03648006825490860002024490860B1
:1008B0003348406860B132480068401C23490860F2
:1008C000254800682E490968401A2149086006E059
:1008D0002B4800681D49086000201D490860294810
:1008E000406860B127480068401C1C4908601E48E9
:1008F000006824494968401A194908604BE043E000
:10090000000400401400002060000020A800002027
:100910004800002018000020A80241426400002086
:10092000AC0000204C0000202000002068000020C7
:10093000B000002050000020280000206C000020A3
:10094000B40000205400002030000020700000207F
:10095000B80000205800002038000020740000205B
:10096000BC0000205C00002040000020C0000020EF
:1009700078000020800000208800002090000020E7
:1009800098000020A00000201A4800681A4908605A
:1009900000201A49086000201949086019490860B8
:1009A000194908601949086019490860194908601F
:1009B0000121194801F00EFA1CBD10B540F2255175
:1009C000164801F0AAFC38B1144801F0E4FB1449C0
:1009D000087008460078087010BD704700BFFEE739
:1009E00000BFFEE700BFFEE700BFFEE770477047AD
:1009F00070477047A000002074000020BC00002059
:100A0000480000204C00002050000020540000202E
:100A1000580000205C00002000040040001001404D
:100A2000C400002032490143324A1160704770B55A
:100A3000002100230F22C4781CB32E4C246804F438
:100A4000E064C4F5E064C4F30721C1F10404E3B237
:100A50000A4144789C40E1B28478144021430C0759
:100A6000210E254C05786155047804F01F050124FA
:100A7000AC4005786D11AD0005F1E025C5F80041E9
:100A800009E0047804F01F050124AC401B4D0678F2
:100A9000761145F8264070BD194A0A400243154BAD
:100AA0001B1F1A60704739B1124A121D12680243A7
:100AB000104B1B1D1A6006E00E4A121D126882437D
:100AC0000C4B1B1D1A607047042808D14FF0E02121
:100AD000096941F004014FF0E022116107E04FF095
:100AE000E021096921F004014FF0E0221161704713
:100AF0000000FA050CED00E000E400E080E100E019
:100B000080FFFF1F10B504468C48844208D10121A4
:100B1000084600F000FB0021012000F0FCFA5EE036
:100B20008748844208D10121022000F0F4FA002114
:100B3000022000F0F0FA52E08248844208D10121FC
:100B4000042000F0E8FA0021042000F0E4FA46E076
:100B50007D48844208D10121082000F0DCFA002100
:100B6000082000F0D8FA3AE07848844208D1012100
:100B7000102000F0D0FA0021102000F0CCFA2EE076
:100B80007348844208D10121202000F0C4FA0021DA
:100B9000202000F0C0FA22E06E48844208D10121F2
:100BA000402000F0B8FA0021402000F0B4FA16E02E
:100BB0006948844208D10121802000F0ACFA00216C
:100BC000802000F0A8FA0AE06448844207D101219D
:100BD000801500F0A0FA0021A01500F09CFA10BDCD
:100BE000F0B50A4600210023002400BF3DE00125A6
:100BF00005FA01F3156805EA03049C4234D105683F
:100C00004F000326BE40B543056015794E00B54040
:100C10000668354305601579012D02D01579022D3E
:100C200016D185684F000326BE40B54385605579CF
:100C30004E00B540866835438560456801268E4084
:100C4000B5434560456896798E40B6B235434560F8
:100C5000C5684F000326BE40B543C560D5794E0038
:100C6000B540C6683543C560491C1029BFD3F0BDE7
:100C70004FF6FF7101600021017141718171C171F5
:100C8000704708B54FF480320092009A0A430092F0
:100C9000009AC261C161009AC261C2690092C269D0
:100CA000009208BD0246002013690B400BB10120E1
:100CB00000E0002070470146086980B27047024694
:100CC000002053690B400BB1012000E00020704769
:100CD0000146486980B2704701837047418370477D
:100CE0000AB1018300E04183704741617047426966
:100CF0004A4042617047F0B5002300244D07ED0ED5
:100D000002FA05F3CE1000F1200555F826504E07E3
:100D1000F70E0F26BE40B543CF1000F1200646F86F
:100D20002750CE1000F1200555F8265045EA03045F
:100D3000CE1000F1200545F82640F0BD000002402D
:100D40000004024000080240000C02400010024073
:100D50000014024000180240001C02400020024023
:100D6000FA48006840F00100F84908600020F7499F
:100D700008310860F5480068F5490840F349086003
:100D8000F448091D0860081F006820F48020091F2E
:100D900008600020ED490C31086070470021EB4AE3
:100DA000921C117011460870704710B50146002260
:100DB000002300204A11012A02D1E44C236808E0F4
:100DC000022A03D1E14C7034236802E0DF4C743412
:100DD000236801F01F02012494401C400CB1012043
:100DE00000E0002010BD38B5002000900024002550
:100DF00000BF3120FFF7D9FF05460098401C009046
:100E00000098B0F5A06F01D0002DF2D03120FFF78F
:100E1000CCFF08B1012400E00024204638BD014683
:100E20000020CA4A106820F0F80040EAC1001060B3
:100E30007047C949086070470021C44A7032117078
:100E40001170012802D004280AD104E00121BF4A10
:100E50007032117005E00521BC4A7032117000E05B
:100E600000BF00BF7047BD490860704770B5049C63
:100E700041EA82150126C6EB530645EA06450543BD
:100E800045EA0465B14E361D356070BDB24908664D
:100E90007047820142EA0172AC4B84331A6070479A
:100EA000AD4988667047AC49C86470470246002067
:100EB000A64B0833186820F0EC6042EA010318439F
:100EC000A24B083318607047024600209F4B08333E
:100ED000186820F0784042EA010318439B4B08331E
:100EE0001860704701460020984A0832106820F0C8
:100EF000030008431060704794480830006800F011
:100F00000C00704701460020904A0832106820F01B
:100F1000F000084310607047014600208B4A0832F9
:100F2000106820F4E050084310607047014600202C
:100F3000864A0832106820F4604040EAC100106020
:100F40007047F0B50021002200240225002602236C
:100F50007E4F08373F6807F00C0121B1042905D006
:100F6000082937D105E07E4F076036E07D4F0760E6
:100F700033E0764F3F1D3F68C7F38056734F3F1DE8
:100F80003F6807F03F036EB1764FB7FBF3F7DFF82A
:100F9000BCC10CF1040CDCF800C0CCF3881C07FBCE
:100FA0000CF40CE06E4FB7FBF3F7DFF8A0C10CF1C7
:100FB000040CDCF800C0CCF3881C07FB0CF4634F76
:100FC0003F1D3F68C7F301477F1C7D00B4FBF5F769
:100FD000076002E0624F076000BF00BF5B4F083749
:100FE0003F6807F0F00109095F4F7A5C0768D74056
:100FF0004760564F08373F6807F4E051890A5A4F57
:101000007A5C4768D7408760504F08373F6807F4DD
:101010006041490B544F7A5C4768D740C760F0BDC8
:10102000002100F44072B2F5407F0AD1474A0832ED
:10103000116821F4F8114D4A02401143434A083225
:101040001160424A70321268C0F30B031A433F4BDF
:1010500070331A60704741494439086070473F490E
:1010600040390860704742490860704739B1374AD3
:10107000303212680243354B30331A6006E0334A8F
:10108000303212688243314B30331A60704739B1C5
:101090002E4A3432126802432C4B34331A6006E075
:1010A0002A4A343212688243284B34331A6070471C
:1010B00039B1264A383212680243244B38331A6059
:1010C00006E0224A383212688243204B38331A60D5
:1010D000704739B11D4A4032126802431B4B4033FE
:1010E0001A6006E0194A403212688243174B4033B7
:1010F0001A60704739B1154A443212680243134BE3
:1011000044331A6006E0114A4432126882430F4B9E
:1011100044331A60704739B10C4A103212680243E6
:101120000A4B10331A6006E0084A103212688243F4
:10113000064B10331A607047E1B1044A143212684A
:101140000243024B14331A6019E0000000380240D9
:10115000FFFFF6FE1030002400004742800E474299
:101160000024F40040787D01C5000020FFFCFF0F43
:101170005C0147425B4A126882435A4B1A607047CF
:1011800039B1584A121D12680243564B1B1D1A6092
:1011900006E0544A121D12688243524B1B1D1A600E
:1011A000704739B14F4A0C32126802434D4B0C3331
:1011B0001A6006E04B4A0C3212688243494B0C33EA
:1011C0001A60704739B1474A103212680243454BE2
:1011D00010331A6006E0434A103212688243414BD2
:1011E00010331A60704739B13E4A3C3212680243EC
:1011F0003C4B3C331A6006E03A4A3C321268824368
:10120000384B3C331A60704739B1364A4032126865
:101210000243344B40331A6006E0324A40321268CF
:101220008243304B40331A60704739B12D4A443203
:10123000126802432B4B44331A6006E0294A4432B9
:1012400012688243274B44331A60704739B1254AEC
:101250004C3212680243234B4C331A6006E0214A99
:101260004C32126882431F4B4C331A60704739B1BD
:101270001C4A5032126802431A4B50331A6006E07F
:10128000184A503212688243164B50331A60704726
:1012900039B1144AD21F12780243124BDB1F1A7065
:1012A00006E0104AD21F127882430E4BDB1F1A70E1
:1012B00070470C486030006840F080700949603128
:1012C0000860704701460020064A083A12680A4042
:1012D0000AB1012000E0002070470249891F087010
:1012E000704700001438024010B50446FE4884429E
:1012F00008D101210846FFF765FF00210120FFF713
:1013000061FF9DE0B4F1804F08D101210846FFF74D
:1013100048FF00210120FFF744FF91E0F348844299
:1013200008D101210220FFF73CFF00210220FFF736
:1013300038FF85E0EE48844208D101210420FFF700
:1013400030FF00210420FFF72CFF79E0E9488442B8
:1013500008D101210820FFF724FF00210820FFF712
:1013600020FF6DE0E448844208D101211020FFF7FE
:1013700018FF00211020FFF714FF61E0DF488442CE
:1013800008D101212020FFF70CFF00212020FFF7CA
:1013900008FF55E0DA48844208D101210220FFF716
:1013A00011FF00210220FFF70DFF49E0D5488442DC
:1013B00009D101210804FFF705FF00214FF4803017
:1013C000FFF700FF3CE0D048844209D101214804E6
:1013D000FFF7F8FE00214FF40030FFF7F3FE2FE097
:1013E000CA48844209D101218804FFF7EBFE00219D
:1013F0004FF48020FFF7E6FE22E0C548844208D182
:1014000001214020FFF7CDFE00214020FFF7C9FE5B
:1014100016E0C048844208D101218020FFF7C1FEB8
:1014200000218020FFF7BDFE0AE0BB48844207D1BF
:1014300001218015FFF7B5FE0021A015FFF7B1FED1
:1014400010BD00220288A84B98420ED0AC4B9842A7
:101450000BD0B0F1804F08D0A44B984205D0A44BDC
:10146000984202D0A34B984204D14FF68F731A4092
:101470004B881A43A04B984207D0A04B984204D007
:101480004FF6FF431A400B891A4302804B68C36230
:101490000B880385944B984202D0994B984201D116
:1014A0008B7A03860123838270474FF0FF314160BE
:1014B0000021018001814180817270470185828213
:1014C00070470A46002101884FF68F731940114377
:1014D0000180704741627047C16270470146486AA7
:1014E00070470146088D704721B1028842F0020220
:1014F000028004E002884FF6FD731A4002807047B4
:1015000021B1028842F00402028004E002884FF612
:10151000FB731A400280704721B1028842F08002BA
:10152000028004E002884FF67F731A400280704701
:1015300002884FF6F7731A40028002880A4302803D
:10154000704702884FF6FF431A40028002880A4320
:101550000280704721B1028842F00102028004E05B
:1015600002884FF6FE731A400280704770B500245F
:1015700000220023058C4FF6FE7635400584028C50
:101580008388048B4FF68F752C40B51E2C400D8838
:101590002C43751E2A408D892A434D882A43524D7B
:1015A000A84202D0564DA84213D14FF6F7752A40F3
:1015B000CD892A434FF6FB752A408D882A434FF682
:1015C000FF652B404FF6FF552B400D8A2B434D8A6C
:1015D0002B43838004838D684563028470BD70B59E
:1015E000002400220023058C4FF6EF763540058459
:1015F000028C8388048B48F6FF752C404FF6FF451C
:101600002C400D884FF6FF7606EA05252C434FF651
:10161000DF752A408D8906EA05152A434D8806EABA
:1016200005152A43304DA84202D0354DA8421DD1A0
:101630004FF67F752A40CD894FF6FF7606EA0515ED
:101640002A434FF6BF752A408D8806EA05152A43BE
:101650004FF6FF352B404FF2FF752B400D8A06EAFF
:1016600085052B434D8A06EA85052B438380048339
:101670008D688563028470BD70B50024002200234C
:10168000058C4FF6FF6635400584028C8388848B79
:101690004FF68F752C404FF6FC752C400D882C436F
:1016A0004FF6FF552A408D894FF6FF7606EA05254D
:1016B0002A434D8806EA05252A430B4DA84202D04D
:1016C0000F4DA84238D14FF2FF752A40CD894FF611
:1016D000FF7606EA05252A434FF6FF352A408D8816
:1016E00006EA05252A4319E00000014000040040F5
:1016F00000080040000C00400010004000140040B2
:101700000004014000400140004401400048014005
:1017100000180040001C0040002000404EF6FF75FD
:101720002B404DF6FF752B400D8A06EA05152B431D
:101730004D8A06EA05152B43838084838D68C56333
:10174000028470BD70B5002200230024058C4EF683
:10175000FF7635400584038C8488828B48F6FF75BC
:101760002A404FF6FF452A400D884FF6FF7606EADD
:1017700005252A434DF6FF752B408D8906EA053570
:101780002B434D8806EA05352B43FE4DA84202D077
:10179000FD4DA84208D14BF6FF752C400D8A4FF63F
:1017A000FF7606EA85152C43848082838D68056464
:1017B000038470BD0021018041808180816081812E
:1017C000C18101824182704770B503460020002428
:1017D0001846183001258D40ACB21D8CA5431D84E0
:1017E00009B108290AD100EB610005684FF68F7630
:1017F000354005600568154305600FE00D1FC5F312
:101800004E052844056848F6FF76354005600568B2
:101810004FF6FF7606EA02263543056070BD416348
:10182000704781637047C1637047016470470A461F
:101830000021018B4FF68F731940114301837047CC
:101840000A460021018B48F6FF7319404FF6FF73DB
:1018500003EA02231943018370470A460021818B62
:101860004FF68F7319401143818370470A46002158
:10187000818B48F6FF7319404FF6FF7303EA02238A
:101880001943818370470A460021018B4FF6F77395
:1018900019401143018370470A460021018B4FF222
:1018A000FF7319404FF6FF7303EA022319430183C4
:1018B00070470A460021818B4FF6F7731940114398
:1018C000818370470A460021818B4FF2FF731940D4
:1018D0004FF6FF7303EA02231943818370470A46D8
:1018E0000021018B4FF6FB731940114301837047B0
:1018F0000A460021018B4FF6FF3319404FF6FF7364
:1019000003EA02231943018370470A460021818BB1
:101910004FF6FB7319401143818370470A4600213B
:10192000818B4FF6FF3319404FF6FF7303EA022312
:101930001943818370470A460021018B4FF67F735C
:1019400019401143018370470A460021018BC1F3FE
:101950000E014FF6FF7303EA022319430183704718
:101960000A460021818B4FF67F7319401143818312
:1019700070470A460021818BC1F30E014FF6FF73B9
:1019800003EA02231943818370470A460021018C30
:101990004FF6FD7319401143018470470A46002138
:1019A000018C4FF6F77319401143018470470A46C2
:1019B0000021018C4FF6DF7319404FF6FF7303EAE5
:1019C00002131943018470470A460021018C4FF627
:1019D0007F7319404FF6FF7303EA02131943018422
:1019E00070470A460021018C4FF6FF5319404FF60D
:1019F000FF7303EA02231943018470470A4600215A
:101A0000018C4FF2FF7319404FF6FF7303EA022374
:101A10001943018470470A460021018C4DF6FF737B
:101A200019404FF6FF7303EA0233194301847047EC
:101A300030B5002301248C40A3B2048C9C43048461
:101A4000048C02FA01F5ADB22C43048430BD30B5EC
:101A5000002304248C40A3B2048C9C430484048C93
:101A600002FA01F5ADB22C43048430BD828B4FF2F3
:101A7000FF331A408283828B4FF6FF7303EA012300
:101A80001A4382837047F0B50C46154600210022A8
:101A90000026078C4EF6FF7C07EA0C070784818B33
:101AA000028C4FF6FF7707EA043640F6FF473940CD
:101AB0004FF6FF7707EA052739434FF6FF7707EA26
:101AC0000337394345F6FF773A4046F480573A43A7
:101AD00081830284F0BD828B4FF6F3731A408283B8
:101AE000828B0A4382837047F0B50C46154600216D
:101AF00000220026078C4FF6FF6C07EA0C070784CC
:101B0000818B028C4FF6FF7707EA04264FF60C779D
:101B100039404FF6FF7707EA03172F4339434FF257
:101B2000FF573A4046F480773A4381830284F0BD00
:101B3000028B4FF2FF331A400283028B4FF6FF7382
:101B400003EA01231A4302837047F0B50C46154699
:101B5000002100220026078C4FF6EF7C07EA0C07D5
:101B60000784018B028C4FF6FF7707EA041640F6D4
:101B7000FF4739404FF6FF7707EA033739434FF6FF
:101B8000FF7703E0000001400004014007EA052759
:101B900039434FF65F773A4046F010073A430183E6
:101BA0000284F0BD028B4FF6F3731A400283028B5E
:101BB0000A4302837047F0B50C4615460021002207
:101BC000068C4FF6FE773E400684018B028C4FF662
:101BD0000C7631407E1C06EA03162E4331434FF645
:101BE000F576324044F00106324301830284F0BDB1
:101BF00070B505460C46208850B92389A2886188B3
:101C00002846FFF7D8FFE1882846FFF7CBFF25E0FD
:101C1000208804280AD12389A28861882846FFF7F2
:101C200094FFE1882846FFF783FF17E02088082803
:101C30000AD12389A28861882846FFF755FFE188E9
:101C40002846FFF748FF09E02389A28861882846D3
:101C5000FFF719FFE1882846FFF708FF70BD002154
:101C600001804180012181800021C1800181704774
:101C70002DE9F04105460C4600260127608808B989
:101C8000022600E00026A088012801D1022700E0FA
:101C900001272088A0B92389A28861882846FFF7F8
:101CA0008AFFE1882846FFF77DFF23893A463146BF
:101CB0002846FFF74AFFE1882846FFF739FF13E07F
:101CC0002389A28861882846FFF73FFFE1882846DC
:101CD000FFF72EFF23893A4631462846FFF76BFF70
:101CE000E1882846FFF75EFFBDE8F0810146486BBA
:101CF00070470146886B70470146C86B70470146C4
:101D0000086C70470A884B881A438B881A43CB8823
:101D10001A430B891A434B891A438B891A43A0F83B
:101D2000442070470021018041808180C180018171
:101D300041818181704731B1B0F8442042F40042C2
:101D4000A0F8442005E0B0F84420C2F30E02A0F849
:101D50004420704721B1828842F00402828004E06E
:101D600082884FF6FB731A408280704721B18288C7
:101D700042F00102828004E082884FF6FE731A402E
:101D8000828070471AB183890B43838102E0838983
:101D90008B43838170478182704702460020138AFB
:101DA0000B400BB1012000E000207047CA430282C3
:101DB000704730B50246002000230024158A05EA4A
:101DC0000103958905EA010413B10CB1012000E07B
:101DD000002030BDCA430282704741EA0203A0F8E6
:101DE000483070471AB183890B43838102E08389AD
:101DF0008B438381704721B1828842F00802828040
:101E000004E082884FF6F7731A4082807047018998
:101E10004FF6F8721140018170470A46002101898E
:101E20004FF68F73194011430181704730B5044656
:101E30000D4629462046FFF7F0FF208940F00700B5
:101E4000208130BD2DE9F04104460D4616461F465F
:101E5000602D06D13B46012231462046FFF775FE34
:101E600005E03B46012231462046FFF7A4FE294605
:101E70002046FFF7D2FF208940F007002081BDE80F
:101E8000F08130B50C4600210189C9B24FF6FF75CB
:101E900005EA0325154325432943018130BD2DE97A
:101EA000F04105460E4617469846002443463A46FA
:101EB00031462846FFF7E5FF2C894FF6F8700440BD
:101EC00044F007044FF68F70044044F070042C81F6
:101ED000BDE8F081F0B504460D4616461F463B4668
:101EE000324629462046FFF7CCFF208940F4804047
:101EF0002081F0BD82884FF68F731A4082808288DD
:101F00000A438280704702894FF6F8731A400281B3
:101F100002890A430281704702894FF67F731A4093
:101F2000028102890A4302817047F0B50C461546CA
:101F30001E460021002200230189028B038C4FF6EC
:101F4000F877394021434FF6FC473A4040F20117F9
:101F50003A434FF6DD773B404FF6FF7707EA061727
:101F60002F433B43018102830384F0BD21B182886A
:101F700042F08002828004E082884FF67F731A402C
:101F800082807047A0F850107047000010B50446DA
:101F9000F748844208D101211020FFF713F90021EE
:101FA0001020FFF70FF93EE0F248844209D10121E9
:101FB0004804FFF7F6F800214FF40030FFF7F1F87E
:101FC00031E0ED48844209D101218804FFF7E9F8A6
:101FD00000214FF48020FFF7E4F824E0E748844232
:101FE00009D10121C804FFF7DCF800214FF40020DB
:101FF000FFF7D7F817E0E248844209D1012108052C
:10200000FFF7CFF800214FF48010FFF7CAF80AE07D
:10201000DC48844207D101212020FFF7D3F80021BA
:102020002020FFF7CFF810BD2DE9FF4705460E46EB
:102030000024A14600BFA046B08900B100BF2C8A91
:1020400024F44054F08804432C82AC8941F20C60A3
:102050008443B08831890843718908430443AC81C3
:10206000AC8A24F44074B0890443AC826846FEF71D
:1020700068FFBF48854202D0C248854202D1DDF8E0
:102080000C9001E0DDF80890A88900F4004040B110
:1020900009EBC90000EB091031684900B0FBF1F70A
:1020A00007E009EBC90000EB091031688900B0FBBB
:1020B000F1F76420B7FBF0F004012009642101FB73
:1020C0001078A88900F4004040B1322000EBC8002D
:1020D000B0FBF1F000F00700044308E0322000EB11
:1020E00008106421B0FBF1F000F00F0004432C81D4
:1020F000BDE8FF874FF41651016000218180C18047
:1021000001810C21418100218181704710B5024677
:102110000020108A20F470600B884C8823438C8840
:102120002343CC8823431843108210BD0021018033
:1021300041808180C180704721B1828942F4005280
:10214000828104E082894DF6FF731A4082817047D4
:10215000028B02F47F420283028B0A4302837047A0
:1021600021B1828942F40042828103E08289C2F374
:102170000E028281704721B1828A42F4006282821B
:1021800004E0828A4FF2FF731A4082827047C1F3E3
:1021900008028280704701468888C0F308007047B3
:1021A000028A4FF6F0731A400282028A0A430282C0
:1021B000704721B1828942F00202828104E0828963
:1021C0004FF6FD731A408281704782894FF2FF7388
:1021D0001A40828182890A4382817047028A4FF6BF
:1021E000DF731A400282028A0A430282704721B1D9
:1021F000028A42F48042028204E0028A4BF6FF73B4
:102200001A4002827047818941F001018181704743
:1022100021B1828A42F00802828204E0828A4FF66B
:10222000F7731A4082827047028BD2B20283028B0C
:1022300042EA01220283704721B1828A42F02002E1
:10224000828204E0828A4FF6DF731A4082827047EE
:1022500021B1828A42F01002828204E0828A4FF623
:10226000EF731A4082827047828A4FF6FB731A40DE
:102270008282828A0A438282704721B1828A42F036
:102280000202828204E0828A4FF6FD731A40828243
:1022900070471AB1838A0B43838202E0838A8B439F
:1022A00083827047F0B503460024002600250020F5
:1022B00040F66A17B94200D100BF1846C1F3421474
:1022C00001F01F06012707FA06F5012C01D10C3099
:1022D00004E0022C01D1103000E014301AB107687C
:1022E0002F43076002E00768AF430760F0BD024676
:1022F0000020B1F5007F00D100BF13880B400BB167
:10230000012000E00020704701F40072B2F5007F68
:1023100000D100BFCA430280704770B50246002456
:1023200000230025002040F66A16B14200D100BF0C
:10233000C1F3421501F01F03012606FA03F3012D34
:1023400002D19689334006E0022D02D1168A33402D
:1023500001E0968A33400C12012606FA04F416882E
:10236000344013B10CB1012000E0002070BD00002A
:10237000001001400044004000480040004C004074
:10238000005000400014014010B50022002340F628
:102390006A14A14200D100BF0A1201249440A3B2E2
:1023A000DC43048010BD00001CB501210C20FEF7A9
:1023B0005DFE4FF47E40009001208DF80400002067
:1023C0008DF8060003208DF8050001208DF8070028
:1023D00069461448FEF704FC4FF480500090012039
:1023E0008DF8040000208DF8060003208DF805000C
:1023F00001208DF8070069460B48FEF7F1FB4FF40A
:102400007C410848FEF768FC4FF480510648FEF70F
:1024100063FC1CBD01B500BF0098411E009100285F
:10242000FAD108BD00080240000C0240014600BF7E
:10243000704700BF384A128802F04002002AF9D0E3
:10244000C2B2354B9A80704710B588B0044601215E
:102450000846FEF70BFE01211020FEF74BFE072277
:1024600009212E48FEF747FC07220A212B48FEF7D8
:1024700042FC4FF4C060069002208DF81C008DF8DD
:102480001D0000208DF81E0001208DF81F0006A9F8
:102490002248FEF7A5FB02940020ADF80C00ADF831
:1024A0000E00ADF81000ADF814000C20ADF81200CD
:1024B00002A91948FFF7B8FD01211748FFF73CFEB4
:1024C00040211548FFF720FF012240F22551124814
:1024D000FFF7E8FE25208DF8040003208DF80500A5
:1024E0008DF8060001208DF8070001A8FEF79FFA7D
:1024F00008B010BD10B50A48FFF74DFE044621464E
:102500000748FFF744FE00BF80210548FFF7EFFEB4
:102510000028F9D010BD000000100140000002406A
:1025200000140140704710B591FBF2F491FBF2F3F7
:1025300002FB1411C0E9003110BD704770477047AD
:102540007047754600F028F8AE46050069465346C8
:1025500020F00700854618B020B5FDF77BFFBDE8E9
:1025600020404FF000064FF000074FF000084FF0FA
:10257000000B21F00701AC46ACE8C009ACE8C0098B
:10258000ACE8C009ACE8C0098D4670470446AFF31B
:1025900000802046FDF741FE00487047D80000202B
:1025A0004FF04070E1EE100A70470000CC250008A3
:1025B00000000020D8000000C4010008A426000884
:1025C000D800002060060000E0010008007A030A3D
:1025D00000000000000000000102030406070809D3
:1025E00000000000000000000000000000000000EB
:1025F00000000000000000000000000000000000DB
:1026000000000000000000000000000000000000CA
:1026100000000000000000000000000000000000BA
:10262000000000000000000000000000D0070000D3
:10263000D0070000D0070000D0070000D00700003E
:10264000D0070000000000000000000000000000B3
:10265000000000000000000000000000000000007A
:10266000000000000000000000000000000000006A
:10267000000000000000000000000000000000005A
:10268000000000000000000000000000000000004A
:102690000000000000010203040102030406070811
:0426A000090000002D
:040000050800018965
:00000001FF
